:03000000020015E6
:0C001500787FE4F6D8FD758121020532E9
:10000300C28EC2CCC2CD438920E4F58DD28E7598C1
:010013005399
:0100140022C9
:03002300020021B7
:0100210032AC
:10038B000A2A2A2A2A2A2A2A2A2A2A2A2A2A2A2AE2
:10039B002A2A2A2A2A2A2A2A2A2A2A2A2A2A2A2AB2
:1003AB002A2A2A2A2A2A2A2A2A2A2A000A2020200A
:1003BB002020202020486F6D20717561207461749E
:1003CB00206E756F63206461752064696E682020F0
:1003DB0020202020202020000A2020202020426FD7
:1003EB00207175656E2063616920616F2074726581
:1003FB006E2063616E6820686F612073656E2020CC
:10040B00202020000A2020202020202020456D20A5
:10041B0064756F63207468692063686F20616E6810
:10042B002078696E202020202020202020202000F2
:10043B000A2020202020486179206C6120656D20E6
:10044B006465206C616D2074696E2074726F6E67C9
:10045B00206E68613F202020202020000A2A2A2AB3
:10046B002A2A2A2A2A2A2A2A2A2A2A2A2A2A2A2AE1
:10047B002A2A2A2A2A2A2A2A2A2A2A2A2A2A2A2AD1
:09048B002A2A2A2A2A2A2A200022
:10053200120003D2AFD2997BFF7A03798B1200911A
:100542007BFF7A0379B71200917BFF7A0379E3127A
:1005520000917BFF7A04790F1200917BFF7A047974
:0F0562003B1200917BFF7A04796712009180FEB3
:10057100EFB40A07740D12057C740A309811A8991A
:10058100B8130CC2983098FDA899C298B811F630EA
:0705910099FDC299F59922C2
:10002600E5082403F582E43400F583E00508229010
:100036000000300703900003E475F0011204EC029F
:1000460004942000E97F2ED2008018EF540F2490EC
:10005600D43440D4FF30040BEF24BFB41A0050034D
:100066002461FFE50960021509050CE50C7002051F
:100076000B30070E900000E475F0011204ECEF025D
:1000860004DA0205717403D2078003E4C207F50897
:10009600900000120503E4F509F50BF50CE509607F
:1000A600077F2012006980F5750AFFC201C200C2EF
:1000B60002C203C205C206C208120035FF700D3027
:1000C60007057F0012007AAF0CAE0B22B4255FC283
:1000D600D5C204120035FF24D0B40A00501A75F0B8
:1000E6000A780930D50508B6FF0106C6A426F6200B
:1000F600D5047002D20380D924CFB41A00EF50047D
:10010600C2E5D20402027BD20180C6D20080C0D2F0
:100116000280BCD2D580BAD20580B47F2012006995
:100126002002077401B5090040F1120026FF1200F3
:10013600690200A3D208D2068095120026FB12009F
:1001460026FA120026F94A4B7006794C7A037BFF91
:1001560020022EE509602A7E008E82758300120435
:10016600AD60060EEE650A70F0C2D5EBC0E0EAC0DF
:10017600E0E9C0E0EE1202C2D0E0F9D0E0FAD0E049
:10018600FB120494FF60AAEBC0E0EAC0E0E9C0E01D
:10019600120069D0E02401F9D0E03400FAD0E0FB87
:1001A600E50A0460DCD50AD980877BFF7A0279BE2E
:1001B600D202809C791080027908C206C2088008A3
:1001C600D2D5790A8004790AC2D5E50A047002F507
:1001D6000AE4FAFDFEFF120026FC7B08200113123A
:1001E6000026FD7B1030000A120026FE120026FFB4
:1001F6007B20EC3382D592D55013C3E43000069FA2
:10020600FFE49EFEE42001039DFDE49CFCE4CBF8A4
:10021600C201EC700CCFCECDCCE824F8F870F38098
:1002260017C3EF33FFEE33FEED33FDEC33FCEB3358
:10023600FB994002FB0FD8E9EB300105F8D0E0C48A
:1002460048B201C0E00AEC4D4E4F78207B0070C2E8
:10025600EAB50A0040BCC0E01202C4D0F0D0E020EB
:100266000104C4C0E0C4B201C0F0120052D0F0D5FF
:10027600F0EB0200A312050C01405301BA5801111C
:100286004C010D4201BE4F01C64401C64901264339
:0802960001CC5501B04601B096
:10029E004501B047036C5001152D01192E013C2B61
:1002AE00011D23013A2003552A00D54800000134D0
:1002BE003F3F3F00790AA2D5200314300509B9103B
:1002CE00020404B9080104A2D5200602500104203C
:1002DE0002689202B509005034C0E07F2030031945
:1002EE007F30A20272067205500F12031BC202C2A9
:1002FE0006C205C2087F30800F300503E9C0E01248
:10030E000069300503D0E0F9D0E0B509CC3005170F
:10031E007F30B9100C1200697F583004077F788047
:10032E0003B908031200693002057F2D0200697FB0
:10033E00202008F87F2B2006F322920280CF286E11
:10034E00756C6C2900D2011200263001F8C20178BA
:10035E000930D50108F60200D52D50434958120038
:10036E00262403B405004001E49003679312005A5B
:0D037E00743A12005AD2037509040201BA44
:10049400BB010689828A83E0225002E722BBFE0266
:0904A400E32289828A83E4932299
:1004AD00BB010CE58229F582E5833AF583E0225004
:1004BD0006E92582F8E622BBFE06E92582F8E2224E
:0D04CD00E58229F582E5833AF583E4932268
:1004DA00BB010689828A83F0225002F722BBFE0101
:0204EA00F322FB
:1004EC00F8E0FBA3A3E0F925F0F0E5821582700299
:0704FC001583E0FA38F0223D
:09050300EBF0A3EAF0A3E9F022F9
:10050C00D083D082F8E4937012740193700DA3A37E
:10051C0093F8740193F5828883E473740293686092
:06052C00EFA3A3A380DF92
:00000001FF
