:0C07B500759852758920758DFDD28E223A
:10073500EF4E60147D737C00ED1D70011CED4C7057
:08074500F7EF1F70EB1E80E8C6
:01074D002289
:10076700E4FDFCC3ED9FEE6480F8EC6480985007CD
:070777000DBD00010C80EC38
:01077E002258
:10056D0053756E004D6F6E005475650057656E00C6
:10057D005468650046726900536174004A616E00EB
:10058D00466562004D617200417072004D617900E7
:10059D004A756E004A756C004175670053657000B1
:0C05AD004F6374004E6F760044656300DD
:1005B9001546FF056DFF0571FF0575FF0579FF05F7
:1005C9007DFF0581FF0585202422FF0589FF058D13
:1005D900FF0591FF0595FF0599FF059DFF05A1FF02
:0E05E90005A5FF05A9FF05ADFF05B1FF05B58E
:0406F400AD07AC069C
:1006F800ECC4F854F0C8EDC4540F4875F00AA4FBD4
:0C070800EC75F064A44BFFED540F4FFFA4
:0107140022C2
:0F07A600D2A1D2A00000C2A10000C2A000002278
:0B07C100C2A10000D2A00000D2A122C3
:0406A600120378FFC4
:1006AA00E4F55BEF30E703D38001C392A1D2A0C285
:1006BA00A0EF25E0FF055BE55BB408E7D2A00000E8
:0306CA00C2A022A9
:06067200EF1203B7D200F5
:10067800E4FFD2A1F55BD2A0EF25E0FFA2A1E4330D
:100688004207C2A000055BE55BB408EA300004C27B
:0D069800A18002D2A10000D2A00000C2A0EB
:0106A5002232
:02071500AE072D
:100717001207A67FD01206AAAF061206AA1207A6CC
:0D0727007FD11206AAC2001206781207C187
:0107340022A2
:10074E00AE05AD071207A67FD01206AAAF05120698
:09075E00AAAF061206AA0207C1A7
:10051C001207A67FD01206AAE4FF1206AA1207A69B
:10052C007FD11206AAD200120678EF1203A5D200D0
:10053C001206789000011206729000021206729058
:10054C000003120672900004120672900005EF125E
:10055C0003B7C200120678900006EF1203B7020729
:01056C00C1CD
:100637001207A67FD01206AAE4FF1206AA12035FCA
:10064700FF1206AA9000011206A69000021206A643
:100657009000031206A69000041206A69000051249
:0B06670006A69000061206A60207C1BE
:10079500EF75F003A42443F8860308E6FA08E6F9A2
:0107A5002231
:10077F007E001206F4EF75F003A4241FF886030819
:06078F00E6FA08E6F9227B
:1005F80044617920203A2025730D0A0054696D65FD
:10060800203A2025303262583A25303262583A254D
:10061800303262580D0A0044617461203A20253056
:0F0628003262582D25732D323025303262580042
:10049B001207B57B007A00795C12051C535C7F75E3
:1004AB005D59755E23755F047560317561107562FA
:1004BB00057B007A00795C1206377B007A00795C49
:1004CB0012051C7F0C1206CDAF5F1207958B0B8AA2
:1004DB000C890D7BFF7A0579F81200657BFF7A0694
:1004EB007904855E0B855D0C855C0D120065AF6133
:1004FB0012077F8B0C8A0D890E7BFF7A06791F857D
:10050B00600B85620F1200657FE87E031207358052
:01051B00A936
:0300000002040FE8
:0C040F00787FE4F6D8FD75816302045686
:10035F00BB010689828A83E0225002E722BBFE029C
:09036F00E32289828A83E49322CF
:10037800BB010CE58229F582E5833AF583E022503A
:1003880006E92582F8E622BBFE06E92582F8E22284
:0D039800E58229F582E5833AF583E493229E
:1003A500BB010689828A83F0225002F722BBFE0137
:0203B500F32231
:1003B700F8BB010DE58229F582E5833AF583E8F07C
:1003C700225006E92582C8F622BBFE05E92582C828
:0203D700F22210
:1006CD00EFB40A07740D1206D8740A309811A89960
:1006DD00B8130CC2983098FDA899C298B811F6308D
:0706ED0099FDC299F5992265
:10000300E517240BF8E60517227808300702780B6A
:10001300E475F0011203D902035F2000EB7F2ED2B7
:10002300008018EF540F2490D43440D4FF30040BD5
:10003300EF24BFB41A0050032461FFE518600215D2
:1000430018051BE51B7002051A30070D7808E475C7
:10005300F0011203D9EF0203A50206CD7403D20700
:100063008003E4C207F5178B088A09890AE4F518A7
:10007300F51AF51BE51860077F2012003E80F57521
:1000830019FFC201C200C202C203C205C206C208EE
:1000930012000CFF700D3007057F0012004FAF1BDD
:1000A300AE1A22B4255FC2D5C20412000CFF24D0BD
:1000B300B40A00501A75F00A781830D50508B6FF4F
:1000C3000106C6A426F620D5047002D20380D924E3
:1000D300CFB41A00EF5004C2E5D20402024FD2019A
:1000E30080C6D20080C0D20280BCD2D580BAD205ED
:1000F30080B47F2012003E2002077401B51800402F
:10010300F1120003FF12003E020077D208D20680EC
:1001130095120003FB120003FA120003F94A4B7015
:100123000679207A037BFF20022EE518602A7E00E1
:100133008E8275830012037860060EEE651970F0E7
:10014300C2D5EBC0E0EAC0E0E9C0E0EE120296D00F
:10015300E0F9D0E0FAD0E0FB12035FFF60AAEBC046
:10016300E0EAC0E0E9C0E012003ED0E02401F9D0AB
:10017300E03400FAD0E0FBE5190460DCD519D9803E
:10018300877BFF7A027992D202809C791080027970
:1001930008C206C2088008D2D5790A8004790AC247
:1001A300D5E519047002F519E4FAFDFEFF12000308
:1001B300FC7B08200113120003FD7B1030000A12A0
:1001C3000003FE120003FF7B20EC3382D592D5504F
:1001D30013C3E43000069FFFE49EFEE42001039D69
:1001E300FDE49CFCE4CBF8C201EC700CCFCECDCC8B
:1001F300E824F8F870F38017C3EF33FFEE33FEED16
:1002030033FDEC33FCEB33FB994002FB0FD8E9EBF6
:10021300300105F8D0E0C448B201C0E00AEC4D4E0D
:100223004F78207B0070C2EAB5190040BCC0E012D1
:100233000298D0F0D0E0200104C4C0E0C4B201C0F1
:10024300F0120027D0F0D5F0EB0200771203E9019A
:100253001453018E5800E54C00E14201924F019A7C
:0F02630044019A4900FA4301A0550184460184E1
:100272004501844703405000E92D00ED2E01102B6B
:1002820000F123010E2003292A00A94800000108D9
:100292003F3F3F00790AA2D5200314300509B91067
:1002A200020404B9080104A2D52006025001042068
:1002B20002689202B518005034C0E07F2030031962
:1002C2007F30A20272067205500F1202EFC202C202
:1002D20006C205C2087F30800F300503E9C0E01274
:1002E200003E300503D0E0F9D0E0B518CC30051758
:1002F2007F30B9100C12003E7F583004077F78809F
:1003020003B9080312003E3002057F2D02003E7F32
:10031200202008F87F2B2006F322920280CF286E3D
:10032200756C6C2900D2011200033001F8C2017809
:100332001830D50108F60200A92D50434958120081
:10034200032403B405004001E490033B9312002F01
:0D035200743A12002FD20375180402018EB8
:10041B0002049BE493A3F8E493A34003F68001F258
:10042B0008DFF48029E493A3F85407240CC8C333E2
:10043B00C4540F4420C8834004F456800146F6DFB1
:10044B00E4800B01020408102040809005B9E47E83
:10045B00019360BCA3FF543F30E509541FFEE493A6
:10046B00A360010ECF54C025E060A840B8E493A36D
:10047B00FAE493A3F8E493A3C8C582C8CAC583CA98
:10048B00F0A3C8C582C8CAC583CADFE9DEE780BE50
:0105F7000003
:1003D900FAE6FB0808E6F925F0F618E6CA3AF62225
:1003E900D083D082F8E4937012740193700DA3A3A3
:1003F90093F8740193F5828883E4737402936860B7
:06040900EFA3A3A380DFB6
:00000001FF
