:100000003FC055C258C057C056C055C054C053C059
:1000100052C051C050C04FC04EC04DC04CC04BC06C
:100020004AC049C048C009021200010100800A0903
:10003000040000000000000012010101FF000008A0
:10004000C016DC0500010102000116034100560044
:10005000520055005300420042006F006F007400D0
:100060001C037700770077002E006600690073009C
:10007000630068006C002E0064006500040309043E
:1000800011241FBECFE5D4E0DEBFCDBF10E0A0E657
:10009000B0E0E6E0F8E002C005900D92A436B107AA
:1000A000D9F710E0A4E6B0E001C01D92A03AB10774
:1000B000E1F79DD0A6C3A4CFF89481E180935700C7
:1000C000E89581E08BBF1BBEE0916400F091650074
:1000D00009950895FC018181813019F4EDDF80E0FC
:1000E0002EC0823011F581E080936600938180E01C
:1000F000228130E0822B932B9093680080936700DD
:1001000010926A0010926900E199FECFF894E09194
:100110006700F091680083E080935700E895789439
:1001200007B600FCFDCF8FEF0AC0833039F4109280
:100130006B0080E480936C0082E001C080E02BE6DD
:1001400030E030939B0020939A000895CF93DF9383
:10015000EC0180916600813009F043C0662309F408
:1001600042C040E051E0F8942091690030916A006B
:100170008091670090916800280F391FFE01E40FFD
:10018000F11DB181A0E0808190E08A2B9B2BF901C9
:100190000C0150935700E8951124789480916900E0
:1001A00090916A00029690936A008093690080346F
:1001B000910588F0F894E0916700F091680085E07F
:1001C00080935700E895789407B600FCFDCF109215
:1001D000660081E009C04E5F461708F4C4CF80E096
:1001E00003C08FEF01C080E0DF91CF9108958FEFC2
:1001F00088BB17BA85BB14BA8AEF82BB82E081BB89
:100200009A995ADF81E08BBF82E08BBF42D178940C
:1002100001D0FECFCF93DF9360919C00662309F459
:10022000B9C063500AF4B4C0C3E7D0E0809196002F
:10023000C82FCF5F809199008D3209F081C068305E
:1002400009F094C08881807609F070C01092940003
:100250008981882339F41092950024E930E090E8F0
:1002600082E059C0853041F48A8180939D0024E961
:1002700030E090E880E04FC0863099F48B81813087
:1002800019F1823031F1833049F58A81882359F19F
:10029000813071F1823089F124E930E090EC80E026
:1002A0003AC0883079F1893041F48A8180939F0087
:1002B00024E930E090E880E02EC08A3041F124E962
:1002C00030E090E880E027C028E330E090EC82E165
:1002D00022C026E230E090EC82E11DC024E930E04B
:1002E00090EC80E018C02CE730E090EC84E013C084
:1002F00020E630E090EC8CE10EC02AE430E090EC97
:1003000086E109C02FE930E090E881E004C024E9EB
:1003100030E090E881E030939B0020939A002F8199
:10032000222391F52E81281720F12EC0CE01D2DE96
:100330008F3F09F59881992304F58E8190E024C0C0
:1003400080918A008823DCF0CE0100DF8F3F49F4E2
:100350008EE180938B0082E08093620090E08FEFCB
:1003600013C0882379F490E08FEF0EC090E880E00E
:100370000BC0822F09C090E807C090E005C090E84C
:1003800080E002C090E080E090938A008093630058
:1003900010929C00809163008F3F09F45DC09091A2
:1003A000620099230CF058C0C82F893008F0C8E0CB
:1003B0008C1B8093630080918A0080FD02C0DBE487
:1003C00001C0D3EC8F5F80938A0020919A00309116
:1003D0009B0086FD03C0CC23C1F42FC0CC2369F160
:1003E0004C2F415050E0C9010196840F951FF9012F
:1003F000ACE8B0E064916D933196E817F907D1F756
:100400004F5F5F4F240F351F14C0D9014C2F41504F
:1004100050E0EBE8F0E0CF010296840F951F319693
:100420006D916193E817F907D9F74F5F5F4F240F7C
:10043000351F30939B0020939A008CE890E06C2F3E
:10044000DCD18C2F8C5FC83018F49FEF9093630041
:10045000D0938B008093620080B3857019F0109266
:10046000890014C080918900882381F480B385704D
:1004700069F483E690B3957049F48150D9F781E02F
:100480008093890010929D0010929800DF91CF9187
:10049000089583E790E0809397000B9680939600F1
:1004A00085B7836085BF8BB780648BBF08950F933A
:1004B0000FB70F93809BFECF809B06C0809B04C02C
:1004C000809B02C0000000C01F933F932F9331E038
:1004D00014E000B3102710FD32E0102F3A95C9F751
:1004E00000FDE5C000B3102717952FE72795DF9390
:1004F00010B3012707952795CF93C091970000B3BC
:100500001027179527953BE0D0E04F9310B30127B4
:10051000079527954FEF000055C0809BFECF809B2D
:1005200006C0809B04C0809B02C0000000C0DF9119
:1005300000C0CDCF10B3157079F1407C2C6F13C083
:1005400000B3057049F141782C6F15C0057021F199
:10055000102F2C6F00B319C000B30570E9F04E7F67
:100560002C6F18C038F300B30570B1F01027179541
:100570002795243028F310B30127079527954227A4
:1005800049934FEF00B3243008F3102717952795B0
:10059000243010F310B31570E1F10127079527956A
:1005A0002430F0F000B30570A1F1102717952795BE
:1005B0002430E0F010B30127079527953A9541F1D3
:1005C0002430D0F000B3057021F11027179527953E
:1005D0002430C0F010B30127079527952430C2CFEF
:1005E00010B31570B1F04C7F2C6FDCCF00B30570E9
:1005F00081F0487F2C6FDECF10B3157051F0407F33
:100600002C6FE0CF00B3057021F0407E2C6FE2CF5D
:100610003BC03C2FC09197003C1B00E433300ABF25
:1006200098F108811981412F1F77209198000D3290
:1006300079F1013E69F10936C1F00777033421F5FC
:1006400010919E00112301F100919C000030C1F532
:100650003430CAF130939C001093990000919600B9
:10066000C0939600009397002EC0121769F4309142
:1006700062003F3F29F10FEF00936200CBE8D0E02A
:1006800025C0002700939E004F91CF91DF910FC0AE
:100690001217B9F700939E000FEF009363000093C9
:1006A00062004F91CF910AB706FD37CFDF9100E48A
:1006B0000ABF2F913F911F910F910FBF0F91189576
:1006C000C0E6D0E002C0C1E6D0E032E05F9302B302
:1006D0000A7F016002BB55E011B3156011BB20E831
:1006E0000FC0052710E002BB10C0052710E00894DA
:1006F00002BB13C0052710E015C0052710E019C084
:1007000020FF052702BB279517951C3F50F720FFB8
:100710000527279502BB17951C3F38F720FF0527B3
:100720002795179502BB1C3F28F720FF0527279523
:1007300017951C3F02BB08F700C0499120FF052711
:1007400002BB279517951C3F80F520FF05272795AD
:1007500002BB17951C3F68F520FF052727951795C5
:1007600002BB1C3F58F520FF0527279517951C3F16
:1007700002BB38F5242F3A9519F60A7F5F9102BB28
:1007800032E03A95F1F710919D00C256D04011F039
:1007900010939800016011B31A7F02BB0A7F4F913A
:1007A000CF9111BB02BBDF9182CF052710E002BBC6
:1007B000CACF052710E0089402BBCDCF052710E073
:1007C000CFCF052710E0D3CFA82FB92F8FEF9FEF02
:1007D00041E050EA615070F02D9138E0722F782797
:1007E00096958795269570FF02C0842795273A95A0
:1007F000A9F7F0CF809590950895E6DF8D939D93AE
:060800000895F894FFCFFB
:040806005AD2FFFFC4
:00000001FF
