:0800000040C0FECFF1C0FCCFAF
:10000800FBCFFACFEEC0F8CFF7CF2EC2F5CFF4CFA3
:10001800F3CFF2CFF1CFF0CFEFCFEECFEDCF445308
:100028005441434B454E440048535441434B454E7D
:10003800440000000000010001004E475559454E9C
:100048005F5448414E485F534F4E5E5E44543A30C9
:100058003934393130393938350009006000260023
:10006800090009043000040038043A000100B30311
:100078003E000100B40340000000F894EE27ECBBFA
:10008800F1E0FBBFEBBFE5BFF8E1F1BDE1BD8DE0FD
:10009800A2E0BB27ED938A95E9F780E094E0A0E61B
:1000A800ED930197E9F7E2E6F0E0859195910097E5
:1000B80061F0A591B59105901590BF01F0010590EB
:1000C8000D920197E1F7FB01F0CFE7E3EDBFE4E024
:1000D800EEBFC2EBD3E0A6C11A9310E0E9811E1768
:1000E80060F4DCD331970F01AA81BB81ED91AA831B
:1000F800BB83D001E2D41F5FF1CF1881CDC31A931F
:1001080010E0E9811E1770F4AA81BB81CAD4AC81C2
:10011800BD81EC93C3D3EA81FB813196EA83FB83EB
:100128001F5FEFCF1881B8C3ADD499D4B0D4AA98C3
:10013800A99AA898EC81FD813197EC83FD833196CB
:1001480009F1AA9B02C0AA9801C0AA9AA99B02C059
:10015800A99801C0A99AA89B02C0A89801C0A89A0A
:10016800A3D3AA9B02C0AA9801C0AA9AA99B02C0BD
:10017800A99801C0A99AA89B02C0A89801C0A89AEA
:1001880093D3D8CFAA98A998A89886C3929AC39AC5
:10019800969AC298949808959298C3989698C298F7
:1001A800089590989198C598C498C698C798C0988B
:1001B800C198949A13C0909A9198C59AC498C69A6F
:1001C800C798C09AC198949A09C09098919AC5986E
:1001D800C49AC698C79AC098C19A9498DDDF0895C2
:1001E8001895EA93E0E0E093B403E9911895FFCFFE
:1001F800839914C05ED3E27019F45BD3E47031F0D4
:10020800F894949859D3949A789408C052D3E87083
:1002180029F0F894949A50D378949498E9CF219738
:10022800E0E0E8839C9905C044D3E2604FD351D302
:1002380003C03FD3ED7F4AD3879905C03AD3E46022
:1002480045D347D303C035D3EB7F40D3E091B40304
:10025800E03041F42ED3E86039D3E1E0E093B40311
:1002680038D303C026D3E77F31D3A881A23018F44E
:10027800E881E03011F4E1E002C01BD3EE7FE093A7
:10028800B30317D3E27039F08CDFAA9B02C0AA9897
:1002980001C0AA9A01C0AA980CD3E47039F08BDF88
:1002A800A99B02C0A99801C0A99A01C0A99801D325
:1002B800E87039F08ADFA89B02C0A89801C0A89A04
:1002C80001C0A898F6D2E17019F060DF949803C0D5
:1002D800E2E3F0E002D32196A2CF2197E6E1E8839A
:1002E800FFD201D3E091B503F091B603309741F501
:1002F800FFD2E0E0EA937FD249DFA881E6E1B4D3F8
:10030800E881E03069F09D9902C0839B02C0E6E174
:1003180002C0E881E150E883E4E6F0E0DED2F0CF05
:10032800EAD2EED2FF93EF93F6D2E2D2F8D2AF91AF
:10033800BF91FAD2FCD2EFD2FFD2DAD202D35BD28B
:10034800DAD202D3E091BD03F091BE03349632971E
:10035800FF93EF93E0D2CCD2E2D2AF91BF91E4D237
:10036800F9D2D9D2FCD2E4E0F0E0FFD2D4D2F7D26D
:100378002196B3CFE0E0E8BBEFEFE7BBE0E3E5BBF6
:10038800EFE0E4BBE8E2E2BBE7E5E1BBBB98C39A78
:100398008B98939A8D98959A979AAC9AAD9AE0E033
:1003A800EFBDEEE0EEBDE0E0EDBDECBDE7BDE6BDC6
:1003B800EBBDEFEFEABDE0E0E9BDE8BDD9D2E16110
:1003C800E9BFF894AB98E2DEA6D2C4D2E8E0EA939B
:1003D80096DEA1D2E4E0EA93A2D23097B1F0A7D298
:1003E800E4E0EA939CD2309721F495D2E9EBF3E06C
:1003F80010C076D278D27FD283D2FF93EF938BD27C
:1004080077D28DD2AF91BF918FD2E9EBF3E0ADD225
:1004180067D2FA93EA9390D29DD27DD2E8E0EA932C
:100428005BDE0895A7DFB0D0E0E0EA93EBEFF0E001
:10043800A5D2E4E1A7D2C1D084D2ECEFF0E09ED2FD
:10044800EEE1A0D2BAD054D2E3E1F1E097D2EEE1E6
:1004580099D2B3D0E3E0EA93E1E7F1E08FD2EEE19D
:1004680091D2ABD093D1FFCF0F921F922F923F9290
:100478004F925F926F927F928F929F92AF92BF92AC
:10048800CF92DF92EF92FF920F931F932F933F9398
:100498004F935F936F937F938F939F93AF93BF9384
:1004A800EF93FF930FB60F92E091B203FF27EE0F81
:1004B800ADECB3E0AE0FBF1F7DB78EB77D938C93C5
:1004C800A1EEB3E0AE0FBF1FCD93DC93E2EBE2BF2A
:1004D8005BD25ED260D2AE17B8F460D262D263D279
:1004E800E081E27079F062D2C9D2309719F05ED219
:1004F8002BD231965BD2C2D2309721F44FD25FD241
:10050800A9E0A0835ED2E5CF3FD260D208F066D2E0
:1005180069D2E081E17029F468D210F46DD201C08B
:10052800F4CFE091B203FF27EE0FA1EEB3E0AE0FD8
:10053800BF1FCD91DC91ADECB3E0AE0FBF1F7D9135
:100548008C917DBF8EBF0F900FBEFF91EF91BF9131
:10055800AF919F918F917F916F915F914F913F9153
:100568002F911F910F91FF90EF90DF90CF90BF9048
:10057800AF909F908F907F906F905F904F903F903B
:100588002F901F900F901895F3D1A1E172D2E0E05F
:10059800E093C20331D2F8D1FED1AA3030F4FED1B3
:1005A8000ED2A0E0A0830DD2F7CFC093C003D093A2
:1005B800C10326D2D4E0CFE5089592D200E010E03E
:1005C800EC81EF5DAB81EA0FD801EBD1AE17BF0725
:1005D80040F419D2A01BB10BE0E4EC930F5F1F4F5E
:1005E800EFCF0ED2AD81A1830BD2AE81A18310D201
:1005F8007F97E093C003F093C1030AD2B6D1E2E437
:10060800F0E0B3D1EFE1F0E0B0D138D1EF81ADEC5B
:10061800B3E003D23196D00187D1AC81A13018F074
:10062800EC81BFD102C0EAE0F0E0FED1A1EEB3E078
:10063800F4D13196D00178D1AB81A13018F0EB819B
:10064800B0D102C0E4E1F0E0EFD1B9D1AA81A08332
:10065800EF81F3D1AE0FBF1FE0E0F0E065D1EF818D
:10066800EF5FEF83A091C203AE1710F4E093C203CB
:10067800EC8197D1B196DF01EB8193D1EA0FFB1F93
:1006880034D228960895F8940F921F922F923F9291
:100698004F925F926F927F928F929F92AF92BF928A
:1006A800CF92DF92EF92FF920F931F932F933F9376
:1006B8004F935F936F937F938F939F93AF93BF9362
:1006C800EF93FF930FB60F92E091B203FF27EE0F5F
:1006D800ADECB3E0AE0FBF1F7DB78EB77D938C93A3
:1006E800A1EEB3E0AE0FBF1FCD93DC934DD16ED119
:1006F80008F074D177D1E081E17029F476D110F453
:100708007BD101C0F4CFE091B203FF27EE0FA1EE39
:10071800B3E0AE0FBF1FCD91DC91ADECB3E0AE0FEF
:10072800BF1F7D918C917DBF8EBF0F900FBEFF9133
:10073800EF91BF91AF919F918F917F916F915F9151
:100748004F913F912F911F910F91FF90EF90DF9064
:10075800CF90BF90AF909F908F907F906F905F9059
:100768004F903F902F901F900F9078940895F89491
:10077800E091B20362D1EA0FFB1FA881B981A0837F
:10078800B18330D1A2E0A0837EDF3FC027D1E091C2
:10079800B203FF27EE0FA1EEB3E0AE0FBF1FCD915E
:1007A800DC91ADECB3E0AE0FBF1F7D918C917DBFA6
:1007B8008EBF0F900FBEFF91EF91BF91AF919F91A8
:1007C8008F917F916F915F914F913F912F911F91E1
:1007D8000F91FF90EF90DF90CF90BF90AF909F90D8
:1007E8008F907F906F905F904F903F902F901F90C9
:1007F8000F9018950895CCD0A981AE1730F4F894CD
:10080800E981DDD0A881A0833EDF2296089566D1D4
:100818000FEF1FEF20E0EE812E17E8F4AF81B885C7
:10082800EE27A20FBE1FEC91BCD00E271F2730E089
:10083800383078F400FF09C0F801F695E795AC81E7
:10084800BD81EA27FB278F0102C0169507953F5FF8
:10085800EFCF2F5FE0CFF80146D12996089599810F
:100868008881009641F0BD81AC81FB81EA8161916C
:100878006D930197E1F7FD81EC810EC09981888124
:10088800009641F0BD81AC81FB81EA8105900D9213
:100898000197E1F7FD81EC8126960895EC81FD81B1
:1008A8003196EC83FD830895E881F981FA93EA9300
:1008B800CAC0E091B3030895E1E0F0E0FA93EA9347
:1008C800E0E2F3E060E070E0E7D02ECCE093B30321
:1008D8000895E881EF5FE8830895FA93EA9347CF94
:1008E800E5EBF3E00895E093BD03F093BE030895AC
:1008F800E2E0EA930895A091BD03B091BE03089584
:10090800E0E5FAE0ED93FC93E091BD03F091BE03BE
:10091800349632970895E4DFFA93EA930895E1E074
:10092800F0EAFA93EA9373CFED93FC930895E9EB19
:10093800F3E0FA93EA930895E4E0F0E0FA93EA9397
:100948008ECFE1E0EA930895ED91FD913197FE9302
:10095800EE930895E0E0F0E0FA93EA930895E4E076
:10096800EA93BADBE4EFF1E0B8CFFA93EA9308959B
:10097800E5E0E3BFE2EBE2BFE9B70895F6DFE0E1C7
:10098800EA930895EA93DDCFE0E0E093BF0308958A
:10099800E091C2030895A091BF030895E091BF03B9
:1009A8000895F0E00895ED53FC4F0895F7DFA5EFA3
:1009B800B3E0F7DFEE0FFF1FAE0FBF1F0895F1DFA3
:1009C800F2CFECDFEF5FE093BF030895A091B2038D
:1009D800AF5FA093B203DCDFAE170895E1E0E093C8
:1009E800B2030895E091B203EACFD5DFAF5FA093D9
:1009F800BF03CEDFEA170895E0E0E093B20308955D
:100A0800A0ECB3E0A1CFA091C003B091C1030895B9
:100A1800E091C003F091C1030895C3DFEE0FFF1FFB
:100A2800EA0FFB1F0F01ECCFEEDFAE1BBF0BA0934D
:100A3800C003B093C103EF810895A5EFB3E0B1DF20
:100A4800EE0FFF1F0895E991F991309639F080ED86
:100A580097E00197F1F7A8953197C9F7089576952A
:100A68006795F795E7950895EA17E1E009F0EE270D
:100A78000895EA17E1E009F4EE270895ED91FC9155
:100A880011970895E881F9816A817B810895E88347
:100A9800F9836A837B8308957A936A93FA93EA9336
:100AA8000895E199FECFFF93FFB7F894AEBBBFBBA3
:100AB800E09AEDB3FFBFFF910895E19B02C0A895AE
:100AC800FCCF9FB7F894AEBBBFBBE09A8DB3E817D5
:100AD80019F0EDBBE29AE19A9FBF08953A932A93E1
:100AE8001A930A9308953B812A81198108810895F0
:00000001FF
