:1003AA00536F6E2058696E204368616F2042612046
:1003BA00436F6E00536F6E205465737400202020C3
:1003CA0048656C6C6F20776F7264200A20202020A9
:1003DA0020383035314B697400C0F9A4B099928243
:0303EA00F8809008
:0803ED00AF17AE16AD15AC14FC
:1003F5008F138E128D118C10780812025B8FB0AF9F
:1004050013AE12AD11AC10781012025B8FA0AF13B2
:0E041500AE12AD11AC10781812025B8F80226F
:020489008F1EC4
:10048B00E4F51FE51FC3951E5025E51F30E00A7FDD
:10049B00FF7EFF7DFF7CFF80087F007E007D007C60
:0F04AB00001203F57F147E00120539051F80D45F
:0104BA00221F
:10000300E4751701F516F515F514F51A1203ED7FCE
:10001300147E00120539AF17AE16AD15AC14780176
:1000230012026E8F178E168D158C14051AE51AC3DE
:10003300942040D8E4F517F516F515751480F51AD4
:100043001203ED7F147E00120539AF17AE16AD15FE
:10005300AC14780112025B8F178E168D158C140564
:100063001AE51AC3942040D8E4751701F516F5155F
:10007300F514F51A1203ED7F147E00120539AF173C
:10008300AE16AD15AC14780112026E8F178E168D55
:10009300158C14E5174401F517E516F516E515F566
:1000A30015E514F514051AE51AC3942040C674FF28
:1000B300F517F516F515F514E4F51A1203ED7F148B
:1000C3007E00120539AF17AE16AD15AC14780112C8
:1000D300025B8F178E168D158C14051AE51AC394BF
:1000E3002040D874FFF517F516F515F514E4F51A45
:1000F3001203ED7F647E00120539AF17AE16AD15FE
:10010300AC1412024E8F178E168D158C14051AE53A
:060113001AC3942040DA3B
:0101190022C3
:10036600D2941202D47BFF7A0379AA1202817FF417
:100376007E011205397F011204BB7BFF7A0379BE29
:10038600120281C294C2957F887E13120539D294D7
:100396007FA07E0F120539C294C2957F887E131204
:0403A600053980DFB6
:0405940000401454BB
:06058D0001220001210023
:10052400300009C2B7C2B6C2B5C2B422D2B7D2B67D
:05053400D2B5D2B42293
:1004E500C200120524A2B5E43325E0FFA2B4E4332B
:1004F5004FFFA2B6E43325E025E04FFFA2B7E43372
:0805050033333354F84FFF2299
:10050D00D200120524EF1392B4EFA2E192B5A2E24C
:07051D0092B6A2E392B7229F
:0E054C00C2B2D2B212050DC2B2C20002052424
:0201A6008F0CBC
:1001A800750E011204568F0DE521701CE50D24B063
:1001B80060092440700D750D408003E4F50D75212C
:1001C800018008E4F50E8003E4F521E50E600AE5F8
:1001D8000D4480FF1204BB8023E50CB40A1EE50D14
:1001E800C394404005E4F50D800AE50DC394004032
:1001F80003750D40E50D4480FF0204BBE50C640A5D
:100208006016C2B0D2B0E50C7804A2E713D8FBFFA1
:0802180012054CAF0C12054C5D
:0102200022BB
:1004BB008F0F120456C2B0C2B0E50FC4540FFF1217
:1004CB00054CAF0F12054CE50F64016005E50FB449
:0A04DB0003077F037E00120539229B
:1002D400E4F521C200120524C2B2D2B2C2B1C2B145
:1002E400C2B0C2B07FF47E011205397F0312054CFF
:1002F4007F017E001205397F0312054C7F017E00C9
:100304001205397F0212054C7F281204BB7F0C12A0
:0C03140004BB7F061204BB7F010204BB87
:10042300752101EFC3941040027F0FC3ED9402ECDA
:100433006480948040067C007D40800F74942DF589
:100443008274053CF583E493FD7C00EF24802DFF4B
:030453000204BBE5
:060281008B088A09890ABE
:10028700E4F50BAB08AA09A90A850B82758300124E
:1002970002216038120456EF64106003BF5016AB9A
:1002A70008AA09A90A850B82758300120221B420C6
:1002B70004050B80CEAB08AA09A90A850B827583B2
:0C02C70000120221FF1201A6050B80B7F7
:0102D3002208
:040320008E1B8F1C85
:10032400D3ED9407EC648094804005751D408009EA
:10033400ED75F008A42440F51D120456AF1D1204F7
:10034400BBE4F51D120456E51C251DF582E4351B9E
:10035400F583E493FF1201A6051DE51DC394074030
:01036400E3B5
:010365002275
:100456007D717C007F18120584C2B2C2B1D2B1C2CE
:10046600B0C2B0D2B21204E5EF75F010A4FDACF044
:10047600C2B2D2B21204E5EF4205C2B2D2B0C2B1E4
:02048600AF05C0
:010488002251
:09058400EF600500001F80F82261
:0A0566007F7B1205840000000022D4
:0C055A00AE07EE60061205661E80F72258
:0A0570007F7B1205840000000022CA
:10053900AD07AC06ED4C600A120570ED1D70F51C97
:0305490080F2221B
:0A057A00EF1F70011E144E70F722EF
:0300000002011AE0
:0C011A00787FE4F6D8FD758122020161B7
:10022100BB010CE58229F582E5833AF583E0225092
:1002310006E92582F8E622BBFE06E92582F8E222DC
:0D024100E58229F582E5833AF583E49322F6
:0D024E00CFF4CFCEF4CECDF4CDCCF4CC2245
:10025B00E8600FECC313FCED13FDEE13FEEF13FF81
:03026B00D8F122A5
:10026E00E8600FEFC333FFEE33FEED33FDEC33FCEE
:03027E00D8F12292
:10012600020366E493A3F8E493A34003F68001F286
:1001360008DFF48029E493A3F85407240CC8C333DA
:10014600C4540F4420C8834004F456800146F6DFA9
:10015600E4800B010204081020408090058DE47EA7
:10016600019360BCA3FF543F30E509541FFEE4939E
:10017600A360010ECF54C025E060A840B8E493A365
:10018600FAE493A3F8E493A3C8C582C8CAC583CA90
:10019600F0A3C8C582C8CAC583CADFE9DEE780BE48
:010593000067
:00000001FF
