:02038500C100B5
:100285007801E4F60876641202EDC2871203337F23
:10029500D212031775250A7FE17E447D927C3812C0
:1002A5000222780176270876101202EDE50944202E
:0A02B500FF120317C2B7D28480FEC7
:10033300C20112034D1202BF1202BFC2017F081293
:0A03430002C31202BFC20102034D03
:100317008F21852109E521C4540F4408FFC201122A
:0C03270002C3E521540FFFC2010202C313
:10034D00E5A0540F44F0F5A0A201B39285D287D257
:09035D0084E5A0C4540FFFC28422
:010366002274
:0402BF00C201E4FF95
:1002C300300102D2B7A201B39285C287D284EFC4B0
:1002D30054F0FFE5A0540F4FF5A0C28430010A7813
:0A02E30001E4F608766E1202ED2227
:080222008F248E238D228C2114
:10022A00C2B77801E4F60876DD1202EDD2B778019A
:10023A00760108762C1202EDE525B40B09D2017F6E
:06024A000A1202C3152593
:100250007B007A007927E525FD7C0085243A8523FB
:10026000398522388521371200F3E4F531E531C3B1
:100270009525501074272531F8E6FFD2011202C3EC
:04028000053180E9DB
:010284002257
:0E036700C20112034DEF30E2F7D20112034D36
:010375002265
:0A00F3008B328A3389348C358D3648
:1000FD00853A3E85393D85383C85373BE4F53FE40F
:10010D007B0AFAF9F8AF3EAE3DAD3CAC3B12006157
:10011D00AF038F40AF3EAE3DAD3CAC3BE47B0AFA46
:10012D00F9F81200618F3E8E3D8D3C8C3BE540AF62
:10013D003F701FEF3395E0FEAB32E5342536F9E520
:10014D00333535FAC3E99FF9EA9EFA90FFFF740A39
:10015D00801DEF3395E0FEAB32E5342536F9E533FE
:10016D003535FAC3E99FF9EA9EFA90FFFFE5401293
:10017D000003053FAF3FEF3395E0FEEF65367003AB
:08018D00EE6535600302010C70
:010195002247
:0F037600438910C28FD28E308FFDC28FC28E226C
:1002ED00758B2E758DFC438910C28FD28E308FFD8C
:1002FD00C28FC28EC3E5029401F502E5019400F5AB
:0A030D0001E50270DBE50170D72264
:0300000002019664
:0C019600787FE4F6D8FD7581400201DDA1
:10000300F8BB010DE58229F582E5833AF583E8F033
:10001300225006E92582C8F622BBFE05E92582C8DF
:02002300F222C7
:1000250075F008758200EF2FFFEE33FECD33CDCC92
:1000350033CCC58233C5829BED9AEC99E582984015
:100045000CF582EE9BFEED9AFDEC99FC0FD5F0D6F2
:10005500E4CEFBE4CDFAE4CCF9A88222B800C1B91C
:100065000059BA002DEC8BF084CFCECDFCE5F0CB5A
:10007500F97818EF2FFFEE33FEED33FDEC33FCEB93
:1000850033FB10D703994004EB99FB0FD8E5E4F94E
:10009500FA227818EF2FFFEE33FEED33FDEC33FC3B
:1000A500C933C910D7059BE99A4007EC9BFCE99A2F
:1000B500F90FD8E0E4C9FAE4CCFB2275F010EF2F74
:1000C500FFEE33FEED33FDCC33CCC833C810D70774
:1000D5009BEC9AE899400AED9BFDEC9AFCE899F8AF
:0E00E5000FD5F0DAE4CDFBE4CCFAE4C8F92242
:1001A200020285E493A3F8E493A34003F68001F2EC
:1001B20008DFF48029E493A3F85407240CC8C3335E
:1001C200C4540F4420C8834004F456800146F6DF2D
:1001D200E4800B0102040810204080900385E47E35
:1001E200019360BCA3FF543F30E509541FFEE49322
:1001F200A360010ECF54C025E060A840B8E493A3E9
:10020200FAE493A3F8E493A3C8C582C8CAC583CA13
:10021200F0A3C8C582C8CAC583CADFE9DEE780BECB
:010387000075
:00000001FF
